:10039E007F017E007D317C01ED1D70011CED4C70E6
:0A03AE00F7EF1F70011EEF4E70EA1A
:0103B8002222
:10037F00E4FEEF30E704D2918002C291EF25E0FF57
:0E038F00D2B4309203430701C2B40EBE08E49C
:01039D00223D
:0C03DA00C29012037FE4FF12037FD29058
:0103E60022F4
:1003B900C29012037FAC07AF0512037FD290AF043E
:0103C9002211
:0602D0008B098A0A890B6C
:1002D600C29012037FAD07E4FCECC3950C5017E403
:1002E600FF12037FAB09AA0AA90B8C82758300EF64
:0A02F6001201420C80E3D290AF0524
:0103000022DA
:06029E008B158A1689177A
:1002A400C29012037FAD07E4FCECC395185018AB61
:1002B400150517E517AA167002051614F91200FCA5
:0B02C400FF12037F0C80E2D290AF0518
:0102CF00220C
:10026A0012039E12039EC2B3D290C2B4D2B27D01CF
:10027A007F211203B97F221203B97D7F7F241203E3
:10028A00B97D267F261203B97D7E7F271203B97FA7
:04029A00200203B982
:0A0164008F298D2A8B2B8A2C892D00
:10016E00E4F532F533C2B3E52A24FEFD7F231203F4
:10017E00B9AB2BAA2CA92D852A187F3012029EAB63
:10018E002BAA2CA92D852A187F2A12029EAD297F13
:10019E00251203B97D7E7F201203B9E4F533AB2F10
:1001AE00AA30A931852E187FA012029ED2B3120357
:1001BE009EC2B31202348F32E532646460F5E532CA
:1001CE00D3940F500BE533C454F02532F532800929
:0B01DE000533E533D3940540C5AF3274
:0101E90022F3
:100301008F128D13C2B3E51324FEFD7F231203B9AF
:100311008513187F2A12029EAD127F251203B97D23
:10032100107F311203B97D3F7F201203B9D2B3226E
:100234007F071203DAAB07EB30E5117D7F7F2712CE
:1002440003B97F081203DAEF540FFF22EB30E413F3
:100254007D7F7F271203B9C2907FE112037FD29082
:050264007FFF227F6412
:010269002272
:100331007F071203DAEF30E61E7B007A0079197528
:100341000C107F611202D07D407F271203B9C29049
:0D0351007FE212037FD2907B007A007919C1
:01035E00227C
:0503F800354595E70109
:0503F300D2AFD2A822E8
:10035F00780D7C007D007BFF7A0379F87E007F05A6
:10036F001200D67B007A00790D7D057F60020301B4
:1003CA00438E80D2B71203F312026A12035F80FED1
:030003000201EA0D
:1001EA00C0E0C0F0C083C082C0D075D000C000C0DB
:0D01FA0001C002C003C004C005C006C0075C
:10020700120331900001120115B40103C38001D319
:0202170092B79C
:10021900D007D006D005D004D003D002D001D00039
:0B022900D0D0D082D083D0F0D0E032E3
:030000000203E711
:0C03E700787FE4F6D8FD7581330203CA6C
:10000600E709F608DFFA8046E709F208DFFA803EDC
:1000160088828C83E709F0A3DFFA8032E309F608C9
:10002600DFFA8078E309F208DFFA807088828C8331
:10003600E309F0A3DFFA806489828A83E0A3F608E5
:10004600DFFA805889828A83E0A3F208DFFA804CBF
:1000560080D280FA80C680D4806980F28033801096
:1000660080A680EA809A80A880DA80E280CA8033FF
:1000760089828A83ECFAE493A3C8C582C8CCC58377
:10008600CCF0A3C8C582C8CCC583CCDFE9DEE78047
:100096000D89828A83E493A3F608DFF9ECFAA9F0C6
:1000A600EDFB2289828A83ECFAE0A3C8C582C8CC1C
:1000B600C583CCF0A3C8C582C8CCC583CCDFEADE35
:1000C600E880DB89828A83E493A3F208DFF980CC97
:1000D60088F0EF60010E4E60C388F0ED2402B40490
:1000E6000050B9F582EB2402B4040050AF23234537
:0600F60082239000567306
:1000FC00BB010689828A83E0225002E722BBFE0202
:09010C00E32289828A83E4932234
:10011500BB010CE58229F582E5833AF583E022509F
:1001250006E92582F8E622BBFE06E92582F8E222E9
:0D013500E58229F582E5833AF583E4932203
:10014200F8BB010DE58229F582E5833AF583E8F0F3
:10015200225006E92582C8F622BBFE05E92582C89F
:02016200F22287
:00000001FF
