:05045700354595E701A9
:03045C00013C015F
:0C0411007F047E747DD6DDFEDEFADFF68F
:01041D0022BC
:0C041E007FA77EAB7D10DDFEDEFADFF66E
:01042A0022AF
:0C042B007F7F7EEB7D20DDFEDEFADFF639
:0104370022A2
:0C0438007FFC7EE67D21DDFEDEFADFF6B3
:010444002295
:05045200D2AFD2A82288
:10027C0078187C007D007BFF7A0479577E007F051F
:10028C001200D37508FA853C097523107524007586
:10029C0025007526087B007A0079187D057F601291
:0402AC0001C08F1DE1
:0102B000222B
:1003A600438E801204521202B1753C01753C011253
:1003B600027C120411E4F53C12027C12043880EC33
:1003E5007F017E007D317C01ED1D70011CED4C709F
:0A03F500F7EF1F70011EEF4E70EAD3
:0103FF0022DB
:1003C600E4FEEF30E704D2918002C291EF25E0FF10
:0E03D600D2B4309203430701C2B40EBE08E455
:0103E40022F6
:0C044500C2901203C6E4FF1203C6D2905E
:010451002288
:10040000C2901203C6AC07AF051203C6D290AF0468
:0104100022C9
:060317008B368A3789389D
:10031D00C2901203C6AD07E4FCECC395395017E447
:10032D00FF1203C6AB36AA37A9388C82758300EF4E
:0A033D001201120C80E3D290AF050C
:010347002293
:0602E5008B2A8A2B892CF4
:1002EB00C2901203C6AD07E4FCECC3952D5018ABBE
:1002FB002A052CE52CAA2B7002052B14F91200F9F8
:0B030B00FF1203C60C80E2D290AF0589
:0103160022C4
:1002B1001203E51203E5C2B3D290C2B4D2B27D01FA
:1002C1007F211204007F221204007D7F7F2412040B
:1002D100007D267F261204007D7E7F271204007F89
:0402E10020020400F3
:0A01C0008F1E8D1F8B208A218922DB
:1001CA00E4F527F528C2B3E51F24FEFD7F231204B8
:1001DA0000AB20AA21A922851F2D7F301202E5AB90
:1001EA0020AA21A922851F2D7F2A1202E5AD1E7F92
:1001FA00251204007D7E7F20120400E4F528AB243A
:10020A00AA25A92685232D7FA01202E5D2B31203BF
:10021A00E5C2B31202468F27E527646460F5E52735
:10022A00D3940F500BE528C454F02527F5278009ED
:0B023A000528E528D3940540C5AF2738
:010245002296
:100348008F3A8D3BC2B3E53B24FEFD7F23120400A8
:10035800853B2D7F2A1202E5AD3A7F251204007DE8
:10036800077F311204007D3F7F20120400D2B322A0
:100246007F07120445AB07EB30E5117D7F7F271250
:1002560004007F08120445EF540FFF22EB30E4132D
:100266007D7F7F27120400C2907FE11203C6D290E1
:050276007FFF227F6400
:01027B002260
:100378007F07120445EF30E61E7B007A00792E7560
:1003880039077F611203177D407F27120400C2904E
:0D0398007FE21203C6D2907B007A00792E1E
:0103A5002235
:03000000020134C6
:0C013400787FE4F6D8FD75813C02017B69
:10000300E709F608DFFA8046E709F208DFFA803EDF
:1000130088828C83E709F0A3DFFA8032E309F608CC
:10002300DFFA8078E309F208DFFA807088828C8334
:10003300E309F0A3DFFA806489828A83E0A3F608E8
:10004300DFFA805889828A83E0A3F208DFFA804CC2
:1000530080D280FA80C680D4806980F28033801099
:1000630080A680EA809A80A880DA80E280CA803302
:1000730089828A83ECFAE493A3C8C582C8CCC5837A
:10008300CCF0A3C8C582C8CCC583CCDFE9DEE7804A
:100093000D89828A83E493A3F608DFF9ECFAA9F0C9
:1000A300EDFB2289828A83ECFAE0A3C8C582C8CC1F
:1000B300C583CCF0A3C8C582C8CCC583CCDFEADE38
:1000C300E880DB89828A83E493A3F208DFF980CC9A
:1000D30088F0EF60010E4E60C388F0ED2402B40493
:1000E3000050B9F582EB2402B4040050AF2323453A
:0600F3008223900053730C
:1000F900BB010689828A83E0225002E722BBFE0205
:09010900E32289828A83E4932237
:10011200F8BB010DE58229F582E5833AF583E8F023
:10012200225006E92582C8F622BBFE05E92582C8CF
:02013200F222B7
:100140000203A6E493A3F8E493A34003F68001F22C
:1001500008DFF48029E493A3F85407240CC8C333C0
:10016000C4540F4420C8834004F456800146F6DF8F
:10017000E4800B010204081020408090045CE47EBF
:10018000019360BCA3FF543F30E509541FFEE49384
:10019000A360010ECF54C025E060A840B8E493A34B
:1001A000FAE493A3F8E493A3C8C582C8CAC583CA76
:1001B000F0A3C8C582C8CAC583CADFE9DEE780BE2E
:01045F00009C
:00000001FF
